:1000000012C02AC029C028C027C026C025C024C0CD
:1000100023C022C021C020C01FC01EC01DC01CC0E4
:100020001BC01AC019C011241FBECFEDCDBF10E0F8
:10003000A0E6B0E0E6E5F5E002C005900D92A43739
:10004000B107D9F720E0A4E7B0E001C01D92AD38B8
:10005000B207E1F735D27DC2D3CF81B3886381BBCC
:100060000895959893982FE130E0AC01022E02C0DC
:10007000559547950A94E2F740FF02C0949A01C053
:100080009498959A95982150310978F7939A089504
:10009000CF93DF93929AC82FD0E0CE01E2DF909AFF
:1000A0008AE18A95F1F700C09098CE0180959095ED
:1000B000D8DF9298DF91CF910895CF93DF93EC0131
:1000C0008991E6DF88818111FBCFDF91CF9108957F
:1000D000CF93DF93EC01C5DF909A8AE18A95F1F71F
:1000E00000C09098CE0180959095DF91CF91B9CFC7
:1000F00081B3876081BB919892988FE59AEE0197C2
:10010000F1F700C0000080E390E0E2DF95E39A950C
:10011000F1F7000080E390E0DBDF85E38A95F1F7FB
:10012000000080E390E0D4DF95E39A95F1F70000BA
:1001300088E390E0CDDF85E38A95F1F7000081E068
:1001400090E0C6DF95E39A95F1F7000086E090E035
:10015000BFDF85E38A95F1F700008FE090E0B8DF1C
:1001600095E39A95F1F70000929A089580EF87BB86
:100170008FEF88BB0895CF93C82F8091780081308E
:1001800009F462C020F0823009F41AC131C1209113
:10019000740030917500CF3329F52150310937FDB6
:1001A00005C0309375002093740004C01092750050
:1001B00010927400E0917C00F0917D0020E030E02E
:1001C000C9016AE070E081D1AF01481B590B4A3088
:1001D00051051CF02F5F3F4FF3CF30937D002093EC
:1001E0007C005BC08C2F8D7F2F5F3F4F309375005D
:1001F000209374008D3221F086ED8C0F823060F4F4
:10020000203131051CF081E090E062DFC0937B007B
:100210008C2F3EDF81E0ADC0203131051CF081E044
:1002200090E056DF80917C0090917D006AE070E064
:100230004CD12C2F30E020533109280F391F309337
:100240007D0020937C00B9C0CF3379F58091740094
:1002500090917500019797FD05C09093750080936C
:10026000740004C01092750010927400E09179003F
:10027000F0917A0020E030E0C9016AE070E025D119
:10028000AF01481B590B4A3051051CF02F5F3F4FFF
:10029000F3CF30937A002093790080E190E018DF6B
:1002A00082E0F6DE80E190E0A1C0CD3309F064C0C9
:1002B00080917B008B32F1F018F48A3269F13DC0F5
:1002C0008D3269F08F32C9F54091790050917A00F2
:1002D00020917C0030917D0080E090E016C08091FC
:1002E0007C0090917D002091790030917A00821BF2
:1002F000930B1FC080917C0090917D00209179002C
:1003000030917A00820F931F14C0241735078CF0A8
:10031000241B350B0196F9CF6091790070917A001A
:1003200077FF02C060E070E080917C0090917D00DA
:10033000CCD0909377008093760080917400909158
:1003400075000196909375008093740040971CF09F
:1003500081E090E0BDDE8DE39BDE4AE06EE770E079
:100360008091760090917700C1D08EE790E0A5DE75
:1003700082E0809378003CC0209174003091750039
:100380002F5F3F4F3093750020937400203131056B
:100390001CF081E090E09CDE8091790090917A00E1
:1003A0006AE070E092D02C2F30E020533109280F02
:1003B000391F30937A00209379008C2FCF9168CE2B
:1003C000CF33B1F410927D0010927C0010927A002D
:1003D00010927900109277001092760010927800B7
:1003E000109275001092740081E090E0CF9170CE71
:1003F000CF910895AF92BF92CF92DF92EF92FF928A
:100400000F931F93CF93DF9300E710E090E6E92E60
:1004100090E0F92ECC24C394D12C28B35801C60106
:10042000F801008002C0880F991F0A94E2F78095B6
:10043000822388BBC0E0D0E086B390E00C2E02C0DF
:10044000959587950A94E2F780FD16C096010C2ECB
:1004500002C0220F331F0A94E2F786B390E0822392
:100460009323892BD1F3FE01EE0FFF1FEE0FFF1F29
:10047000EE0DFF1D80817FDE2196C430D105E1F6AF
:1004800028B30F5F1F4FC601F501008002C0880F1F
:10049000991F0A94E2F7282B28BBFFEFEF1AFF0AF7
:1004A00020E00437120709F0B8CFDF91CF911F91F8
:1004B0000F91FF90EF90DF90CF90BF90AF90089595
:1004C000CCDD54DE15DE96DFFECF0024552704C0B8
:1004D000080E591F880F991F009729F07695679588
:1004E000B8F37105B9F7802D952F0895BB274A30D1
:1004F00031F4992322F4BDE2909581959F4F01C07C
:10050000BB27FB015527AA27880F991FAA1FA417ED
:1005100010F0A41B83955051B9F7A05DAA3308F0E1
:10052000A95DA193009779F7B111B1931192CB0115
:1005300000C0DC01FC01672F71917723E1F732974E
:1005400004C07C916D9370836291AE17BF07C8F3AE
:060550000895F894FFCFAE
:100556003738392F3435362A3132332D3F303D2B5B
:04056600040506077B
:00000001FF
