S0250000417474696E79323331335F50617373776F72645F54656C6570686F6E652E7372656308
S113000014C02CC02BC02AC029C028C027C026C0B9
S113001025C024C023C022C021C020C01FC01EC0D0
S11300201DC01CC01BC01AC019C011241FBECFEDB7
S1130030CDBF10E0A0E6B0E0E2E7F1E002C0059039
S11300400D92AC36B107D9F720E0ACE6B0E001C0C0
S11300501D92AE36B207E1F785D089C0D1CF87B300
S11300608F6387BB88B38F6388BB0895E0E6F0E0B5
S113007040E050E061E070E080916C0090916D0090
S113008048175907F9F486B3208190E0022E02C084
S1130090959587950A94E2F780FF3FC0CB0102C093
S11300A0880F991F2A95E2F79C0186B390E082237A
S11300B09323892BD1F7CA01019690936D00809305
S11300C06C002BC036B3DC01AA0FBB1FA05ABF4F74
S11300D02C91832F90E0022E02C0959587950A9467
S11300E0E2F780FF12C0CB0102C0880F991F2A9546
S11300F0E2F79C0186B390E082239323892BD1F706
S113010010926D0010926C0008C0B59B06C0B599A2
S1130110FECF10926D0010926C004F5F5F4F3296CD
S11301204630510509F0A8CF089580916C00909154
S11301306D000697A9F4909A8FE090E02FEF30E7D6
S113014042E0215030404040E1F700C000000197F8
S11301500097A1F7909810926D0010926C0008958A
S113016085DF08957CDF81E081BBDFDFFECFF8947B
S1050170FFCFBB
S10F017202000300010003000000040070
S9030000FC
