S01B0000417474696E79323331335F534F535F50554C542E73726563CF
S113000014C02CC02BC02AC029C028C027C026C0B9
S113001025C024C023C022C021C020C01FC01EC0D0
S11300201DC01CC01BC01AC019C011241FBECFEDB7
S1130030CDBF10E0A0E6B0E0E8EEF1E002C005902C
S11300400D92A438B107D9F720E0A4E8B0E001C0CC
S11300501D92A638B207E1F7C0D0C4C0D1CF8FE05B
S113006087BB88BB089581B381BB92989398949879
S1130070089580E090E060E050E026B3FC01EE0FCC
S1130080FF1FE458FF4F408130E0042E02C0359535
S113009027950A94E2F720FD10C021E030E0B90171
S11300A002C0660F771F4A95E2F7AB0126B330E032
S11300B024233523232BD1F308950196843091050D
S11300C0E1F6862F952FD9CF8091840090918500F9
S11300D08530910511F4929A08958930910521F49F
S11300E082B38C6082BB08958D30910521F482B374
S11300F08C6182BB089504971CF492989398949809
S1130100089580918400909185009C0121503109CB
S11301102430310528F4109285001092840016C012
S11301209C01255031092430310538F485E090E0F4
S1130130909385008093840009C00997059730F453
S113014089E090E09093850080938400BDDF08955A
S11301502091840030918500F901EE0FFF1FE05AD1
S1130160FF4F880F991FDC01A458BF4F4081518174
S11301708D919C914817590741F42F5F3F4F30935D
S1130180850020938400A0DF01C0BBDF8091840040
S113019090918500892B01F180E090E0929A2FEFF5
S11301A030E742E0215030404040E1F700C0000019
S11301B09298939894982FEF30E742E02150304082
S11301C04040E1F700C00000019620918400309186
S11301D085002817390711F7089541DF44DF49DF07
S10B01E0B7DFFDCFF894FFCF57
S11301E800000300010003000000030000000200F7
S11301F801000000030001000300000000000100EA
S107020802000300E9
S9030000FC
