:1000000014C02CC02BC02AC029C028C027C026C0BD
:1000100025C024C023C022C021C020C01FC01EC0D4
:100020001DC01CC01BC01AC019C011241FBECFEDBB
:10003000CDBF10E0A0E6B0E0EEE9F1E002C005902F
:100040000D92A438B107D9F720E0A4E8B0E001C0D0
:100050001D92A638B207E1F79BD09FC0D1CF8FE0A9
:1000600087BB88BB089581B381BB9298939894987D
:10007000089580E090E060E050E026B3FC01EE0FD0
:10008000FF1FE458FF4F408130E0042E02C0359539
:1000900027950A94E2F720FD10C021E030E0B90175
:1000A00002C0660F771F4A95E2F7AB0126B330E036
:1000B00024233523232BD1F3089501968430910511
:1000C000E1F6862F952FD9CF8091840090918500FD
:1000D0008530910511F4929A08958930910521F4A3
:1000E00082B38C6082BB08958E30910529F482B36F
:1000F0008C6182BB959AFFCF04971CF492989398D9
:100100009498089580918400909185009C012150DD
:1001100031092430310528F41092850010928400B2
:1001200016C09C01255031092430310538F485E092
:1001300090E0909385008093840009C0099705970B
:1001400030F489E090E09093850080938400BCDFD8
:1001500008952091840030918500F901EE0FFF1F72
:10016000E05AFF4F880F991FDC01A458BF4F408110
:1001700051818D919C914817590741F42F5F3F4F52
:1001800030938500209384009FDF0895BBDF08959E
:0E01900066DF69DF6EDFDDDFFDCFF894FFCFA5
:10019E000000030001000300000003000000020045
:1001AE000100000003000100030000000000010038
:0401BE000200030038
:00000001FF
