:1000000014C02CC02BC02AC029C029C0CDC026C016
:1000100025C024C023C022C021C020C01FC01EC0D4
:100020001DC01CC01BC01AC019C011241FBECFEDBB
:10003000CDBF10E0A0E6B0E0E0EEF2E002C0059037
:100040000D92A437B107D9F720E0A4E7B0E001C0D2
:100050001D92A038B207E1F731D140C1D1CF1F9234
:100060000F920FB60F9211242F938F939F9380912D
:100070007C0090917D00893E93406CF080917800E7
:100080009091790001969093790080937800109276
:100090007D0010927C009F918F912F910F900FBE49
:1000A0000F901F9018958FEF87BB91B3986791BB06
:1000B00082BB089581B381BB82B3876082BB089500
:1000C0002FEF28BB27E022BB42B321E030E0062E11
:1000D00002C0220F331F0A94E2F7522F5095452396
:1000E00042BB6330710531F4FC01E05AFF4F80815F
:1000F00088BB05C0FC01E659FF4F808188BB82B3F5
:10010000282B22BB089580917800909179008C3340
:10011000910574F010927900109278008091760029
:10012000909177000196909377008093760006C0B7
:10013000992324F41092790010927800809176002F
:10014000909177008C33910574F0109277001092A3
:1001500076008091740090917500019690937500DF
:100160008093740006C0992324F4109277001092B3
:1001700076008091740090917500883191056CF043
:10018000109275001092740010927900109278000D
:1001900010927700109276000895992324F410921B
:1001A00075001092740008951F920F920FB60F926F
:1001B00011242F933F934F935F936F937F938F936C
:1001C0009F93AF93BF93EF93FF9380917C009091A7
:1001D0007D00019690937D0080937C0080917E004D
:1001E00090917F00019690937F0080937E008BDF3B
:1001F000FF91EF91BF91AF919F918F917F916F91FF
:100200005F914F913F912F910F900FBE0F901F90D4
:10021000189580917A0090917B00009719F00197D2
:1002200041F1089580990CC0809BFECF80917600AB
:1002300090917700019690937700809376000895CF
:1002400081990CC0819BFECF8091760090917700C0
:1002500001979093770080937600089582992DC03E
:10026000829BFECF81E090E090937B0080937A00A8
:10027000089580990CC0809BFECF8091740090916E
:10028000750001969093750080937400089581998C
:100290000CC0819BFECF80917400909175000197F6
:1002A00090937500809374000895829906C0829B94
:1002B000FECF10927B0010927A00089582E889BFE9
:1002C00082E08EBD81E083BF7894EDDEF3DE65E0F1
:1002D00070E080E090E0F4DE9CDFFECFF894FFCF8A
:1002E000BF86DBCFE6EDFD87FFEF3F065B4F666D18
:0402F0007D077F6F98
:00000001FF
