:1000000093C0ADC0ACC0ABC0AAC0A9C0A8C0A7C0B7
:10001000A6C0A5C0A4C0A3C0A2C0A1C0A0C09FC0CC
:100020009EC09DC09CC06E616E00696E66000040FF
:100030007A10F35A00A0724E18090010A5D4E800F7
:1000400000E87648170000E40B54020000CA9A3B0F
:10005000000000E1F5050000809698000000404295
:100060000F000000A0860100000010270000000023
:10007000E803000000006400000000000A00000027
:1000800000000100000000002C76D888DC674F08D3
:1000900023DFC1DFAE59E1B1B796E5E3E453C63AD9
:1000A000E651997696E8E6C28426EB898C9B62ED50
:1000B000407C6FFCEFBC9C9F40F2BAA56FA5F4900A
:1000C000055A2AF75C936B6CF9676DC11BFCE0E481
:1000D0000D47FEF520E6B500D0ED902E03009435D7
:1000E00077050080841E080000204E0A000000C82A
:1000F0000C333333330F986E12831141EF8D21147B
:10010000893BE65516CFFEE6DB18D1844B381BF74A
:100110007C1D901DA4BBE424203284725E228100E9
:10012000C9F124ECA1E53D2711241FBECFE5D4E0A1
:10013000DEBFCDBF10E0A0E6B0E0EAE8F4E102C027
:1001400005900D92A039B107D9F720E0A0E9B0E001
:1001500001C01D92AF3AB207E1F7B5D194C950CFB3
:10016000CF92DF92EF92FF921F93CF93DF93182FDE
:10017000809190008F5F80939000803170F081E0DB
:1001800090E026D22FEF80E792E02150804090400F
:10019000E1F700C0000010929000812FF9D1C091CA
:1001A0009200C23039F01E3209F046C081E08093DF
:1001B000910081C11E3209F03FC01092940010924C
:1001C000950010929600109297001092980010924D
:1001D000990010929A0010929B0010929C0010922D
:1001E0009D0010929E0010929F001092920010921B
:1001F00090008DEC9CECACECBDE3809360009093A0
:100200006100A0936200B09363001092910081E0BE
:1002100090E0DED12FEF80E792E0215080409040C7
:10022000E1F700C000001092900088E790E0C5D18F
:1002300080EC90E0CDD13FC1812F8D7F8D3221F0B8
:1002400086ED810F823040F581E090E0C1D12FEF43
:1002500080E792E0215080409040E1F700C000002C
:10026000109290001093930081E0809392008DECA7
:100270009CECACECBDE38093600090936100A09394
:100280006200B0936300109291008CE790E095D1EA
:1002900080EC90E09DD10FC1CC2309F4AEC01D339A
:1002A00009F0ABC0809193008B3221F120F48A32A7
:1002B00009F454C06CC08D3219F08F32A9F167C0B7
:1002C000209198003091990040919A0050919B00A4
:1002D00060919400709195008091960090919700A4
:1002E000E4D160939C0070939D0080939E00909356
:1002F0009F004DC0209198003091990040919A0044
:1003000050919B00609194007091950080919600AF
:1003100090919700CBD160939C0070939D00809347
:100320009E0090939F0033C02091980030919900D7
:1003300040919A0050919B006091940070919500BB
:10034000809196009091970015D260939C007093D5
:100350009D0080939E0090939F0019C0209198006B
:100360003091990040919A0050919B0060919400C7
:10037000709195008091960090919700F1D26093D2
:100380009C0070939D0080939E0090939F0081E05D
:1003900090E01ED12FEF80E792E021508040904006
:1003A000E1F700C000001092900080E890E005D1D5
:1003B00080EC90E00DD1ECE9F0E083818F938281B5
:1003C0008F9381818F9380818F938CE890E09F93AE
:1003D0008F9380EA90E09F938F93D8D780EA90E044
:1003E000ECD082E0809392008DB79EB708960FB64E
:1003F000F8949EBF0FBE8DBF5EC0809191008111A9
:1004000025C0D0E0CC0FDD1FCC0FDD1FCC56DF4F59
:1004100020E030E040E251E4688179818A819B816B
:100420009FD26B017C01612F70E0605371098827B6
:1004300077FD8095982F08D29B01AC01C701B601CA
:1004400035D1688379838A839B8335C0D0E0C0909F
:100450006000D0906100E0906200F0906300CC0FEB
:10046000DD1FCC0FDD1FCC56DF4F612F70E06053D6
:100470007109882777FD8095982FE6D1A70196010D
:100480006FD29B01AC01688179818A819B810ED1F9
:10049000688379838A839B832DEC3CEC4CEC5DE391
:1004A000C701B6015DD260936000709361008093D4
:1004B000620090936300DF91CF911F91FF90EF90C6
:1004C000DF90CF90089597D00BD088E790E075D05B
:1004D00080EC90E07DD009D08F35E9F341DEFBCF91
:1004E00080EF87BB8FEF88BB0895E4E7F0E060E022
:1004F00070E041E050E028B3DF01CA01008002C093
:10050000880F991F0A94E2F78095822388BBB09BDD
:100510000CC0CA0126B330E0082E02C035952795DD
:100520000A94E2F720FD1DC002C080E090E041E0A7
:1005300050E0082E02C0440F551F0A94E2F726B37C
:1005400030E024233523232BD1F3FC01EE0FFF1FD2
:10055000EE0FFF1F6E0F7F1FFB01EC59FF4F8081D5
:100560000895019684309105A9F628B33196CA0101
:100570000C9002C0880F991F0A94E2F7822B88BB67
:100580006F5F7F4F6430710509F0B5CF8FE5089537
:10059000CF93DF93929AC82FD0E0CE016FD0909A7C
:1005A0008AE18A95F1F700C09098CE0180959095E8
:1005B00065D09298DF91CF910895CF93DF93EC01AE
:1005C0008991E6DF88818111FBCFDF91CF9108957A
:1005D000CF93DF93EC0152D0909A8FE19EE4019784
:1005E000F1F700C000009098CE018095909546D01C
:1005F000DF91CF9108953ED081B3876081BB919800
:1006000092988FE59AEE0197F1F700C0000080E321
:1006100090E0DEDF95E39A95F1F7000080E390E04B
:10062000D7DF85E38A95F1F7000080E390E0D0DF23
:1006300095E39A95F1F7000088E390E0C9DF85E340
:100640008A95F1F7000081E090E0C2DF95E39A958A
:10065000F1F7000086E090E0BBDF85E38A95F1F7D3
:1006600000008FE090E0B4DF95E39A95F1F7000089
:10067000929A089581B3886381BB08959598939861
:100680002FE130E0AC01022E02C0559547950A9447
:10069000E2F740FF02C0949A01C09498959A959809
:1006A0002150310978F7939A08955058BB27AA270B
:1006B0000ED01CC10DD130F012D120F031F49F3F8B
:1006C00011F41EF402C10EF4E095E7FBF8C0E92F27
:1006D0001ED180F3BA17620773078407950718F0D5
:1006E00071F49EF536C10EF4E0950B2EBA2FA02DB5
:1006F0000B01B90190010C01CA01A0011124FF27CF
:10070000591B99F0593F50F4503E68F11A16F040C9
:10071000A22F232F342F4427585FF3CF46953795C8
:100720002795A795F0405395C9F77EF41F16BA0B8D
:10073000620B730B840BBAF09150A1F0FF0FBB1F3B
:10074000661F771F881FC2F70EC0BA0F621F731F84
:10075000841F48F4879577956795B795F7959E3FE1
:1007600008F0B3CF9395880F08F09927EE0F97956F
:10077000879508950CD0BAC0B2D040F0A9D030F01F
:1007800021F45F3F19F09BC05111E4C09EC0BFD05F
:1007900098F39923C9F35523B1F3951B550BBB2748
:1007A000AA2762177307840738F09F5F5F4F220FF5
:1007B000331F441FAA1FA9F333D00E2E3AF0E0E8EE
:1007C00030D091505040E695001CCAF729D0FE2F3A
:1007D00027D0660F771F881FBB1F261737074807CC
:1007E000AB07B0E809F0BB0B802DBF01FF27935882
:1007F0005F4F2AF09E3F510568F061C0ABC05F3F7C
:10080000ECF3983EDCF3869577956795B795F79569
:100810009F5FC9F7880F911D9695879597F9089561
:10082000E1E0660F771F881FBB1F621773078407FD
:10083000BA0720F0621B730B840BBA0BEE1F88F70C
:10084000E0950895E89409C097FB3EF49095809553
:10085000709561957F4F8F4F9F4F9923A9F0F92F86
:1008600096E9BB279395F695879577956795B79504
:10087000F111F8CFFAF4BB0F11F460FF1BC06F5FEA
:100880007F4F8F4F9F4F16C0882311F096E911C0FC
:10089000772321F09EE8872F762F05C0662371F01D
:1008A00096E8862F70E060E02AF09A95660F771F31
:1008B000881FDAF7880F9695879597F9089597F925
:1008C0009F6780E870E060E008959FEF80EC0895F6
:1008D00000240A941616170618060906089500241F
:1008E0000A9412161306140605060895092E039499
:1008F000000C11F4882352F0BB0F40F4BF2B11F40D
:1009000060FF04C06F5F7F4F8F4F9F4F089557FD6B
:100910009058440F551F59F05F3F71F04795880F6D
:1009200097FB991F61F09F3F79F087950895121604
:1009300013061406551FF2CF4695F1DF08C01616B0
:1009400017061806991FF1CF869571056105089461
:100950000895E894BB2766277727CB0197F9089578
:100960000BD0C4CFB5DF28F0BADF18F0952309F01B
:10097000A6CFABCF1124EECFCADFA0F3959FD1F362
:10098000950F50E0551F629FF001729FBB27F00D3D
:10099000B11D639FAA27F00DB11DAA1F649F662792
:1009A000B00DA11D661F829F2227B00DA11D621FE1
:1009B000739FB00DA11D621F839FA00D611D221F9B
:1009C000749F3327A00D611D231F849F600D211D7F
:1009D000822F762F6A2F11249F5750408AF0E1F022
:1009E00088234AF0EE0FFF1FBB1F661F771F881F6B
:1009F00091505040A9F79E3F510570F060CFAACFAB
:100A00005F3FECF3983EDCF3869577956795B79555
:100A1000F795E7959F5FC1F7FE2B880F911D96957F
:100A2000879597F90895A3E1B0E0E8E1F5E057C3B1
:100A30007C011B016A01FC0117821682838181FF00
:100A400049C3BE016F5F7F4F4B01F7019381F101F5
:100A500093FD859193FF81911F01882309F436C38B
:100A6000853239F493FD859193FF81911F01853281
:100A700031F4B70190E058D456016501E6CF10E09B
:100A8000512C20E02032A0F48B3269F030F4803217
:100A900059F0833269F420612CC08D3239F08033F3
:100AA00039F4216026C02260246023C0286021C060
:100AB00027FD27C030ED380F3A3078F426FF06C006
:100AC000FAE01F9F300D1124132F13C06AE0569EC9
:100AD000300D1124532E20620CC08E3221F426FDDD
:100AE000F5C2206406C08C3611F4206802C0883636
:100AF00041F4F10193FD859193FF81911F018111D3
:100B0000C1CF9BEB980F933018F42061805E06C034
:100B10009BE9980F933008F09AC12F7E26FF16E0CC
:100B20002F73722E853621F4F22FF0647F2E08C0C9
:100B3000863621F4622F6068762E02C011111150A2
:100B400077FE07C01C3348F444244394410E27E049
:100B50000BC0183030F4212F06C027E04CE3442EA0
:100B600003C027E017E0412C560174E0A70EB11C2A
:100B7000F6016081718182819381042DA401E6D206
:100B80006C01098100FF02C003FF06C071FC07C0B1
:100B900072FC08C0612C08C03DE2632E05C02BE248
:100BA000622E02C090E2692E802F8C7081F1662047
:100BB00011F084E001C083E0851510F0512C0AC0CB
:100BC000581A73FC07C0B70180E290E0ADD35A9485
:100BD000D1F7F4CF662021F0B701862D90E0A4D3A1
:100BE00003FD03C00AE210E002C006E210E0F72DA8
:100BF000F0717F2EF8018491882309F45EC2711090
:100C00008052B70190E090D30F5F1F4FF3CF77FE74
:100C10000FC04C0C04FF04C08A81813309F44A944C
:100C2000141474F5F8E0F41578F588E0482E2CC01B
:100C300076FC2AC0812F90E08C159D059CF06CEF0E
:100C4000C6166FEFD60674F0772D7068772E0AC03F
:100C5000E2E0F0E0EC0FFD1FE10FF11D8081803339
:100C600019F411501111F4CF77FE0EC044244394AF
:100C7000410E812F90E0C816D9062CF41C1904C02F
:100C80004424439401C010E077FE07C01C141D04E7
:100C90003CF496012F5F3F4F05C025E030E002C0D5
:100CA00021E030E0662011F02F5F3F4F112331F03B
:100CB000412F50E04F5F5F4F240F351F452D50E00F
:100CC0002417350714F4521A01C0512C872D89704E
:100CD00041F4552031F0B70180E290E025D35A94D9
:100CE000F8CF662021F0B701862D90E01DD373FC6C
:100CF00008C0552031F0B70180E390E015D35A9435
:100D0000F8CF77FE5DC09C2D8D2DD7FE02C090E000
:100D100080E0692E782E40E050E0C60184199109E8
:100D20009D878C87960126193709280D391D812F3B
:100D300090E0EE27FF27E81BF90BFF87EE87FFEF18
:100D40006F167F0661F4B7018EE290E02B8B3A8B31
:100D5000488B598BE9D2598948893A892B89C6141D
:100D6000D70454F06C857D85661577052CF4F90160
:100D7000E40FF51F818101C080E371E0671A7108FB
:100D80004F5F5F4FEE85FF856E167F0664F0B701FB
:100D900090E02B8B3A8B488B598BC6D22B893A89A2
:100DA00048895989CCCF6C147D0439F49A819633E3
:100DB00018F4953311F404FF81E3B70190E045C0C6
:100DC0008A81813309F00F7EB70190E0ADD2111115
:100DD00005C074FE16C085E490E015C0B7018EE230
:100DE00090E0A2D282E066246394680EF401E80FDA
:100DF000F11D8081B70190E097D2115051F3862DFB
:100E0000F2CF85E690E0B7018FD2D7FC05C0C114C0
:100E1000D10439F404FF05C0D194C194D1088DE206
:100E200001C08BE2B70190E07FD280E36AE0C61692
:100E3000D1042CF08F5FFAE0CF1AD108F7CFB701B9
:100E400090E072D2B701C601C0966ED236C1833629
:100E500031F0833779F0833509F054C020C0560152
:100E600072E0A70EB11CF6018081898301E010E0D9
:100E7000640113C05601F2E0AF0EB11CF601C08050
:100E8000D18026FF03C0612F70E002C06FEF7FEFBB
:100E9000C6012B8B3ED28C012B892F7714C05601B3
:100EA000F2E0AF0EB11CF601C080D18026FF03C076
:100EB000612F70E002C06FEF7FEFC6012B8B1ED257
:100EC0008C012B892068722E23FD18C0852D90E09F
:100ED0000817190798F4B70180E290E025D25A94D8
:100EE000F5CFF60177FC859177FE81916F01B7010F
:100EF00090E01AD251105A940150110901151105B0
:100F000081F7DBC0843611F0893649F5560127FF99
:100F100009C0F4E0AF0EB11CF601608171818281DD
:100F200093810AC0F2E0AF0EB11CF60160817181BD
:100F3000882777FD8095982F022F0F7697FF08C09E
:100F400090958095709561957F4F8F4F9F4F00686A
:100F50002AE030E0A40139D2C82EC8183DC0022FC3
:100F6000853721F40F7E2AE030E01DC0097F8F36DF
:100F700091F018F4883559F0A9C0803719F08837F6
:100F800011F0A4C0006104FF09C0046007C024FF81
:100F900008C0066006C028E030E005C020E130E06F
:100FA00002C020E132E0560107FF09C0F4E0AF0EB5
:100FB000B11CF601608171818281938108C0F2E0E9
:100FC000AF0EB11CF6016081718180E090E0A40158
:100FD000FCD1C82EC8180F7706FF0BC0202F2E7F1C
:100FE000C11650F404FF0AC002FD08C0202F2E7E57
:100FF00005C0DC2C202F03C0DC2C01C0D12E24FF27
:101000000DC0FE01EC0DF11D8081803311F4297EAD
:1010100009C022FF06C0D394D39404C0822F8678DF
:1010200009F0D39423FD12C020FF06C01C2DD51457
:1010300018F4150D1D19D52CD51460F4B70180E2F4
:1010400090E02B8B71D1D3942B89F6CFD51410F46B
:101050005D1801C0512C24FF11C0B70180E390E05E
:101060002B8B62D12B8922FF16C021FF03C088E59C
:1010700090E002C088E790E0B7010CC0822F86782C
:1010800051F021FD02C080E201C08BE227FD8DE21C
:10109000B70190E049D1C11630F4B70180E390E088
:1010A00043D11150F8CFCA94F401EC0DF11D8081A9
:1010B000B70190E039D1C110F6CF552009F4DDCC4D
:1010C000B70180E290E030D15A94F7CFF7018681E2
:1010D000978102C08FEF9FEF6396E2E11CC02F92D1
:1010E0003F924F925F926F927F928F929F92AF92B8
:1010F000BF92CF92DF92EF92FF920F931F93CF9305
:10110000DF93CDB7DEB7CA1BDB0B0FB6F894DEBF9B
:101110000FBECDBF09942A88398848885F846E84C1
:101120007D848C849B84AA84B984C884DF80EE800B
:10113000FD800C811B81AA81B981CE0FD11D0FB614
:10114000F894DEBF0FBECDBFED010895283008F042
:1011500027E03327DA01990F311D87FD9160009652
:101160006105710539F432602E5F3D9330E32A95B5
:10117000E1F708959F3F30F080387105610509F06F
:101180003C5F3C5F3D93913008F08068911DDF9398
:10119000CF931F930F93FF92EF92192F987F9695FD
:1011A000E92F96959695E90FFF27E857FF4F992766
:1011B0003327EE24FF24A701E70105900894079444
:1011C00028F4360FE71EF81E491F511D660F771FC2
:1011D000881F991F0694A1F70590079428F4E70E3D
:1011E000F81E491F561FC11D770F881F991F661FC4
:1011F0000694A1F70590079428F4F80E491F561F8E
:10120000C71FD11D880F991F661F771F0694A1F76E
:101210000590079420F4490F561FC71FD81F990F38
:10122000661F771F881F0694A9F784911095177081
:1012300041F0D695C79557954795F794E7941A9539
:10124000C1F7EEE2F0E06894159015913591659143
:10125000959105907FE27395E118F10A430B560BC7
:10126000C90BD009C0F7E10CF11E431F561FC91F5F
:10127000D01D7EF4703311F48A95E6CFE8940150C6
:1012800030F0080F0AF40027021708F4202F2395E6
:10129000022F7A3328F079E37D932A95E9F710C07D
:1012A0007D932A9589F606949795679537951795B6
:1012B0001794E118F10A430B560BC90BD00998F0AB
:1012C00023957E9173957A3308F070E37C93201315
:1012D000B8F77E9170617D9330F0839571E37D93D3
:1012E00070E32A95E1F71124EF90FF900F911F9181
:1012F000CF91DF91992787FD90950895FC01059086
:10130000615070400110D8F7809590958E0F9F1F07
:101310000895FC016150704001900110D8F780954C
:1013200090958E0F9F1F08950F931F93CF93DF9378
:10133000182F092FEB018B8181FD03C08FEF9FEFE9
:1013400020C082FF10C04E815F812C813D814217F9
:1013500053077CF4E881F9819F012F5F3F4F398368
:101360002883108306C0E885F985812F0995892B8C
:1013700029F72E813F812F5F3F4F3F832E83812F9F
:10138000902FDF91CF911F910F910895AEE0B0E0C3
:10139000EBECF9E0B2CE0D891E8986E08C831A83CE
:1013A00009838FEF9FE79E838D83AE01475E5F4F7A
:1013B0006F89788DCE01019636DBEF81F885E00FDD
:1013C000F11F10822E96E4E0B4CEFA01AA2728304D
:1013D00051F1203181F1E8946F936E7F6E5F7F4F02
:1013E0008F4F9F4FAF4FB1E03ED0B4E03CD0670F7E
:1013F000781F891F9A1FA11D680F791F8A1F911DD1
:10140000A11D6A0F711D811D911DA11D20D009F420
:1014100068943F912AE0269F11243019305D319362
:10142000DEF6CF010895462F4770405D4193B3E04B
:101430000FD0C9F7F6CF462F4F70405D4A3318F0F2
:10144000495D31FD4052419302D0A9F7EACFB4E0A3
:10145000A6959795879577956795BA95C9F700975B
:101460006105710508959B01AC010A2E06945795FC
:10147000479537952795BA95C9F7620F731F841F53
:0A148000951FA01D0895F894FFCFFA
:10148A00CDCCCC3D3738392F3435362A3132332D4D
:10149A002E303D2B040506075B415D005B425D0073
:1014AA005B494E50555420444F545D002566000058
:00000001FF
