:1000000014C021C020C01FC01EC01EC0C7C01BC05E
:100010001AC019C018C017C016C015C014C013C02C
:1000200012C011C010C00FC00EC011241FBECFEDF2
:10003000CDBF20E0A0E6B0E001C01D92A436B2071B
:10004000E1F717D0F6C0DCCF1F920F920FB60F92D8
:1000500011240F900FBE0F901F90189582E889BF52
:1000600082E08EBD81E083BF7894089581B381BB27
:100070000895FCDFF3DFFFCF809160009091610075
:10008000A0916200B09163008C3A2DE09207A10527
:10009000B10509F46AC05CF58C3D25E09207A10525
:1000A000B10509F452C074F4843F21E09207A10520
:1000B000B10509F442C0883E9340A105B10509F499
:1000C00040C00895843C29E09207A105B10509F4D8
:1000D00044C0883B2BE09207A105B10509F441C05B
:1000E000803D9740A105B10509F057C032C088385E
:1000F00023E19207A105B10509F443C064F4803AF5
:100100002FE09207A105B105A1F184399141A10524
:10011000B10599F10895803727E19207A105B1054E
:10012000C1F18C342DE19207A105B105A9F18C37FD
:100130009541A105B10589F528C0929A939A949AA0
:10014000089592989398949A0895929A939A94986D
:10015000089592989398949A0895929A939A949A5B
:100160000895929A9398949808959298939A949A4D
:100170000895929A939894980895929A939A949A3B
:1001800008959298939A94980895929A9398949A2D
:100190000895929A94980895929808951F920F92B4
:1001A0000FB60F9211242F933F934F935F936F934A
:1001B0007F938F939F93AF93BF93EF93FF93809120
:1001C000600090916100A0916200B091630001967F
:1001D000A11DB11D8093600090936100A093620007
:1001E000B093630049DF8091600090916100A0911D
:1001F0006200B09163008C349D41A105B10541F4CA
:1002000010926000109261001092620010926300E0
:10021000FF91EF91BF91AF919F918F917F916F91DE
:100220005F914F913F912F910F900FBE0F901F90B4
:060230001895F894FFCFC1
:00000001FF
