S01D0000417474696E79323331335F43616C63756C61746F722E737265635C
S113000012C02AC029C028C027C026C025C024C0C9
S113001023C022C021C020C01FC01EC01DC01CC0E0
S11300201BC01AC019C011241FBECFEDCDBF10E0F4
S1130030A0E6B0E0E4E2F6E002C005900D92A43739
S1130040B107D9F720E0A4E7B0E001C01D92AD38B4
S1130050B207E1F79CD2E4C2D3CF81B3886381BBFA
S11300600895959893982FE130E0AC01022E02C0D8
S1130070559547950A94E2F740FF02C0949A01C04F
S11300809498959A95982150310978F7939A089500
S1130090CF93DF93929AC82FD0E0CE01E2DF909AFB
S11300A08AE18A95F1F700C09098CE0180959095E9
S11300B0D8DF9298DF91CF910895CF93DF93EC012D
S11300C08991E6DF88818111FBCFDF91CF9108957B
S11300D0CF93DF93EC01C5DF909A8AE18A95F1F71B
S11300E000C09098CE0180959095BBDFDF91CF91B1
S11300F0089581B3876081BB919892988FE59AEEB9
S11301000197F1F700C0000080E390E0E1DF95E3A0
S11301109A95F1F7000080E390E0DADF85E38A95B1
S1130120F1F7000080E390E0D3DF95E39A95F1F7CF
S1130130000088E390E0CCDF85E38A95F1F70000C6
S113014081E090E0C5DF95E39A95F1F7000086E041
S113015090E0BEDF85E38A95F1F700008FE090E040
S1130160B7DF95E39A95F1F70000929A089580EF2E
S113017087BB8FEF88BB0895CF93C82F80917800F9
S1130180813009F487C020F0823009F46AC180C14B
S1130190CF3379F58091740090917500019799237C
S11301A02CF0909375008093740004C01092750035
S11301B01092740080917C0090917D008A309105AA
S11301C04CF020E030E00A972F5F3F4F8A309105D2
S11301D0D4F702C020E030E030937D0020937C000F
S11301E080E190E075DF82E053DF80E190E070DF32
S11301F04FC18C2F8D7F8D3221F086ED8C0F823094
S1130200C0F420917400309175002F5F3F4F3093FC
S1130210750020937400203131051CF081E090E0DA
S113022057DFC0937B008C2F33DF81E0809378000D
S11302302FC1809174009091750001969093750080
S11302408093740040971CF081E090E041DF80913E
S11302507C0090917D002AE030E021503109211585
S11302603105D9F74C2F50E0405351099C01220F1E
S1130270331F220F331F820F931F9C01220F331F42
S1130280CA01820F931F90937D0080937C008C2F72
S1130290FFDEFEC0CF3379F5809174009091750034
S11302A0019799232CF0909375008093740004C0F7
S11302B010927500109274008091790090917A00E8
S11302C08A3091054CF020E030E00A972F5F3F4FD1
S11302D08A309105D4F702C020E030E030937A00F0
S11302E02093790080E190E0F3DE82E0D1DE80E1CA
S11302F090E0EEDECDC0CD3309F081C080917B006B
S11303008B32C9F020F48A3209F440C059C08D32CE
S113031019F08F32F9F054C080917C0090917D00E7
S11303202091790030917A00821B930B909377008F
S11303308093760045C020917C0030917D008091AF
S1130340790090917A00820F931F909377008093A5
S1130350760036C04091790050917A0080917C00FB
S113036090917D008417950754F020E030E0841BC1
S1130370950B2F5F3F4F84179507CCF702C020E001
S113038030E030937700209376001AC08091790092
S113039090917A0060917C0070917D001816190686
S11303A04CF420E030E02F5F3F4F28173907D9F78E
S11303B0F3D002C080E090E09093770080937600C1
S11303C080917400909175000196909375008093CC
S11303D0740040971CF081E090E07ADE8DE358DEF3
S11303E04AE06EE770E08091760090917700E5D066
S11303F08EE790E062DE82E08093780049C020912D
S11304007400309175002F5F3F4F30937500209337
S11304107400203131051CF081E090E059DE4091F8
S1130420790050917A002AE030E0215031092115F9
S11304303105D9F78C2F90E0C0979A01220F331F12
S1130440220F331F420F531F9A01220F331FAC0197
S1130450420F531F50937A00409379008C2F18DE7B
S113046017C0CF33A9F410927D0010927C00109233
S11304707A00109279001092770010927600109210
S11304807800109275001092740081E090E020DEF4
S1130490CF9108954F925F926F927F928F929F9225
S11304A0AF92BF92CF92DF92EF92FF920F931F937E
S11304B0CF93DF930F2EF0E7EF2EF0E0FF2EF02D19
S11304C00F2EF0E6CF2EF0E0DF2EF02D0F2EF4E706
S11304D06F2EF0E07F2EF02D88248394912C412CF4
S11304E0512C28B35701C401F701008002C0880FC2
S11304F0991F0A94E2F78095822388BB8601C42D54
S1130500D52D86B390E00C2E02C0959587950A945C
S1130510E2F780FD10C094010C2E02C0220F331F9D
S11305200A94E2F786B390E082239323892BD1F3D4
S1130530F801808121DE21960C5F1F4FC430D10564
S113054001F728B3FFEFEF1AFF0AC401F501008099
S113055002C0880F991F0A94E2F7822B88BBFFEF31
S1130560CF1ADF0AE614F70409F0BBCFDF91CF916D
S11305701F910F91FF90EF90DF90CF90BF90AF90BD
S11305809F908F907F906F905F904F90089565DD5E
S1130590EEDDAFDD7FDFFECF0024552704C0080E5B
S11305A0591F880F991F009729F076956795B8F31E
S11305B07105B9F7802D952F0895BB274A3031F482
S11305C0992322F4BDE2909581959F4F01C0BB27EA
S11305D0FB015527AA27880F991FAA1FA41710F0FB
S11305E0A41B83955051B9F7A05DAA3308F0A95D07
S11305F0A193009779F7B111B1931192CB0100C087
S1130600DC01FC01672F71917723E1F7329704C075
S11306107C916D9370836291AE17BF07C8F3089500
S1070620F894FFCF78
S11306243738392F3435362A3132332D3F303D2B88
S107063404050607A8
S9030000FC
